{
  "_format": "hh-sol-artifact-1",
  "contractName": "MyEpicNFT",
  "sourceName": "contracts/MyEpicNFT.sol",
  "abi": [
    {
      "inputs": [],
      "stateMutability": "nonpayable",
      "type": "constructor"
    },
    {
      "anonymous": false,
      "inputs": [
        {
          "indexed": true,
          "internalType": "address",
          "name": "owner",
          "type": "address"
        },
        {
          "indexed": true,
          "internalType": "address",
          "name": "approved",
          "type": "address"
        },
        {
          "indexed": true,
          "internalType": "uint256",
          "name": "tokenId",
          "type": "uint256"
        }
      ],
      "name": "Approval",
      "type": "event"
    },
    {
      "anonymous": false,
      "inputs": [
        {
          "indexed": true,
          "internalType": "address",
          "name": "owner",
          "type": "address"
        },
        {
          "indexed": true,
          "internalType": "address",
          "name": "operator",
          "type": "address"
        },
        {
          "indexed": false,
          "internalType": "bool",
          "name": "approved",
          "type": "bool"
        }
      ],
      "name": "ApprovalForAll",
      "type": "event"
    },
    {
      "anonymous": false,
      "inputs": [
        {
          "indexed": false,
          "internalType": "address",
          "name": "sender",
          "type": "address"
        },
        {
          "indexed": false,
          "internalType": "uint256",
          "name": "tokenId",
          "type": "uint256"
        }
      ],
      "name": "NewNFTMinted",
      "type": "event"
    },
    {
      "anonymous": false,
      "inputs": [
        {
          "indexed": true,
          "internalType": "address",
          "name": "from",
          "type": "address"
        },
        {
          "indexed": true,
          "internalType": "address",
          "name": "to",
          "type": "address"
        },
        {
          "indexed": true,
          "internalType": "uint256",
          "name": "tokenId",
          "type": "uint256"
        }
      ],
      "name": "Transfer",
      "type": "event"
    },
    {
      "inputs": [
        {
          "internalType": "address",
          "name": "to",
          "type": "address"
        },
        {
          "internalType": "uint256",
          "name": "tokenId",
          "type": "uint256"
        }
      ],
      "name": "approve",
      "outputs": [],
      "stateMutability": "nonpayable",
      "type": "function"
    },
    {
      "inputs": [
        {
          "internalType": "address",
          "name": "owner",
          "type": "address"
        }
      ],
      "name": "balanceOf",
      "outputs": [
        {
          "internalType": "uint256",
          "name": "",
          "type": "uint256"
        }
      ],
      "stateMutability": "view",
      "type": "function"
    },
    {
      "inputs": [
        {
          "internalType": "uint256",
          "name": "tokenId",
          "type": "uint256"
        }
      ],
      "name": "getApproved",
      "outputs": [
        {
          "internalType": "address",
          "name": "",
          "type": "address"
        }
      ],
      "stateMutability": "view",
      "type": "function"
    },
    {
      "inputs": [],
      "name": "getTotalNFTsMinted",
      "outputs": [
        {
          "internalType": "uint256",
          "name": "",
          "type": "uint256"
        }
      ],
      "stateMutability": "view",
      "type": "function"
    },
    {
      "inputs": [
        {
          "internalType": "address",
          "name": "owner",
          "type": "address"
        },
        {
          "internalType": "address",
          "name": "operator",
          "type": "address"
        }
      ],
      "name": "isApprovedForAll",
      "outputs": [
        {
          "internalType": "bool",
          "name": "",
          "type": "bool"
        }
      ],
      "stateMutability": "view",
      "type": "function"
    },
    {
      "inputs": [],
      "name": "makeNFT",
      "outputs": [],
      "stateMutability": "nonpayable",
      "type": "function"
    },
    {
      "inputs": [],
      "name": "name",
      "outputs": [
        {
          "internalType": "string",
          "name": "",
          "type": "string"
        }
      ],
      "stateMutability": "view",
      "type": "function"
    },
    {
      "inputs": [
        {
          "internalType": "uint256",
          "name": "tokenId",
          "type": "uint256"
        }
      ],
      "name": "ownerOf",
      "outputs": [
        {
          "internalType": "address",
          "name": "",
          "type": "address"
        }
      ],
      "stateMutability": "view",
      "type": "function"
    },
    {
      "inputs": [
        {
          "internalType": "uint256",
          "name": "tokenId",
          "type": "uint256"
        }
      ],
      "name": "pickRandomColor",
      "outputs": [
        {
          "internalType": "string",
          "name": "",
          "type": "string"
        }
      ],
      "stateMutability": "view",
      "type": "function"
    },
    {
      "inputs": [
        {
          "internalType": "uint256",
          "name": "tokenId",
          "type": "uint256"
        }
      ],
      "name": "pickRandomFirstWord",
      "outputs": [
        {
          "internalType": "string",
          "name": "",
          "type": "string"
        }
      ],
      "stateMutability": "view",
      "type": "function"
    },
    {
      "inputs": [
        {
          "internalType": "uint256",
          "name": "tokenId",
          "type": "uint256"
        }
      ],
      "name": "pickRandomSecondWord",
      "outputs": [
        {
          "internalType": "string",
          "name": "",
          "type": "string"
        }
      ],
      "stateMutability": "view",
      "type": "function"
    },
    {
      "inputs": [
        {
          "internalType": "uint256",
          "name": "tokenId",
          "type": "uint256"
        }
      ],
      "name": "pickRandomThirdWord",
      "outputs": [
        {
          "internalType": "string",
          "name": "",
          "type": "string"
        }
      ],
      "stateMutability": "view",
      "type": "function"
    },
    {
      "inputs": [
        {
          "internalType": "address",
          "name": "from",
          "type": "address"
        },
        {
          "internalType": "address",
          "name": "to",
          "type": "address"
        },
        {
          "internalType": "uint256",
          "name": "tokenId",
          "type": "uint256"
        }
      ],
      "name": "safeTransferFrom",
      "outputs": [],
      "stateMutability": "nonpayable",
      "type": "function"
    },
    {
      "inputs": [
        {
          "internalType": "address",
          "name": "from",
          "type": "address"
        },
        {
          "internalType": "address",
          "name": "to",
          "type": "address"
        },
        {
          "internalType": "uint256",
          "name": "tokenId",
          "type": "uint256"
        },
        {
          "internalType": "bytes",
          "name": "_data",
          "type": "bytes"
        }
      ],
      "name": "safeTransferFrom",
      "outputs": [],
      "stateMutability": "nonpayable",
      "type": "function"
    },
    {
      "inputs": [
        {
          "internalType": "address",
          "name": "operator",
          "type": "address"
        },
        {
          "internalType": "bool",
          "name": "approved",
          "type": "bool"
        }
      ],
      "name": "setApprovalForAll",
      "outputs": [],
      "stateMutability": "nonpayable",
      "type": "function"
    },
    {
      "inputs": [
        {
          "internalType": "bytes4",
          "name": "interfaceId",
          "type": "bytes4"
        }
      ],
      "name": "supportsInterface",
      "outputs": [
        {
          "internalType": "bool",
          "name": "",
          "type": "bool"
        }
      ],
      "stateMutability": "view",
      "type": "function"
    },
    {
      "inputs": [],
      "name": "symbol",
      "outputs": [
        {
          "internalType": "string",
          "name": "",
          "type": "string"
        }
      ],
      "stateMutability": "view",
      "type": "function"
    },
    {
      "inputs": [
        {
          "internalType": "uint256",
          "name": "tokenId",
          "type": "uint256"
        }
      ],
      "name": "tokenURI",
      "outputs": [
        {
          "internalType": "string",
          "name": "",
          "type": "string"
        }
      ],
      "stateMutability": "view",
      "type": "function"
    },
    {
      "inputs": [
        {
          "internalType": "address",
          "name": "from",
          "type": "address"
        },
        {
          "internalType": "address",
          "name": "to",
          "type": "address"
        },
        {
          "internalType": "uint256",
          "name": "tokenId",
          "type": "uint256"
        }
      ],
      "name": "transferFrom",
      "outputs": [],
      "stateMutability": "nonpayable",
      "type": "function"
    }
  ],
  "bytecode": "0x60806040526000600855603260095560405180610100016040528060d3815260200162004a6360d39139600a90805190602001906200004092919062000c25565b5060405180608001604052806056815260200162004b3660569139600b90805190602001906200007292919062000c25565b506040518061010001604052806040518060400160405280600381526020017f726564000000000000000000000000000000000000000000000000000000000081525081526020016040518060400160405280600781526020017f233038433241380000000000000000000000000000000000000000000000000081525081526020016040518060400160405280600581526020017f626c61636b00000000000000000000000000000000000000000000000000000081525081526020016040518060400160405280600681526020017f79656c6c6f77000000000000000000000000000000000000000000000000000081525081526020016040518060400160405280600481526020017f626c75650000000000000000000000000000000000000000000000000000000081525081526020016040518060400160405280600581526020017f677265656e00000000000000000000000000000000000000000000000000000081525081526020016040518060400160405280600e81526020017f636f726e666c6f776572626c756500000000000000000000000000000000000081525081526020016040518060400160405280600681526020017f6f72616e67650000000000000000000000000000000000000000000000000000815250815250600c9060086200026792919062000cb6565b506040518061016001604052806040518060400160405280600581526020017f617269657300000000000000000000000000000000000000000000000000000081525081526020016040518060400160405280600381526020017f6c656f000000000000000000000000000000000000000000000000000000000081525081526020016040518060400160405280600b81526020017f736167697474617269757300000000000000000000000000000000000000000081525081526020016040518060400160405280600681526020017f746175727573000000000000000000000000000000000000000000000000000081525081526020016040518060400160405280600581526020017f766972676f00000000000000000000000000000000000000000000000000000081525081526020016040518060400160405280600981526020017f6361707269636f726e000000000000000000000000000000000000000000000081525081526020016040518060400160405280600581526020017f6c6962726100000000000000000000000000000000000000000000000000000081525081526020016040518060400160405280600881526020017f617175617269757300000000000000000000000000000000000000000000000081525081526020016040518060400160405280600681526020017f63616e636572000000000000000000000000000000000000000000000000000081525081526020016040518060400160405280600781526020017f73636f7270696f0000000000000000000000000000000000000000000000000081525081526020016040518060400160405280600681526020017f7069736365730000000000000000000000000000000000000000000000000000815250815250600d90600b6200050d92919062000d1d565b506040518061016001604052806040518060400160405280600581526020017f617269657300000000000000000000000000000000000000000000000000000081525081526020016040518060400160405280600381526020017f6c656f000000000000000000000000000000000000000000000000000000000081525081526020016040518060400160405280600b81526020017f736167697474617269757300000000000000000000000000000000000000000081525081526020016040518060400160405280600681526020017f746175727573000000000000000000000000000000000000000000000000000081525081526020016040518060400160405280600581526020017f766972676f00000000000000000000000000000000000000000000000000000081525081526020016040518060400160405280600981526020017f6361707269636f726e000000000000000000000000000000000000000000000081525081526020016040518060400160405280600581526020017f6c6962726100000000000000000000000000000000000000000000000000000081525081526020016040518060400160405280600881526020017f617175617269757300000000000000000000000000000000000000000000000081525081526020016040518060400160405280600681526020017f63616e636572000000000000000000000000000000000000000000000000000081525081526020016040518060400160405280600781526020017f73636f7270696f0000000000000000000000000000000000000000000000000081525081526020016040518060400160405280600681526020017f7069736365730000000000000000000000000000000000000000000000000000815250815250600e90600b620007b392919062000d1d565b506040518061016001604052806040518060400160405280600581526020017f617269657300000000000000000000000000000000000000000000000000000081525081526020016040518060400160405280600381526020017f6c656f000000000000000000000000000000000000000000000000000000000081525081526020016040518060400160405280600b81526020017f736167697474617269757300000000000000000000000000000000000000000081525081526020016040518060400160405280600681526020017f746175727573000000000000000000000000000000000000000000000000000081525081526020016040518060400160405280600581526020017f766972676f00000000000000000000000000000000000000000000000000000081525081526020016040518060400160405280600981526020017f6361707269636f726e000000000000000000000000000000000000000000000081525081526020016040518060400160405280600581526020017f6c6962726100000000000000000000000000000000000000000000000000000081525081526020016040518060400160405280600881526020017f617175617269757300000000000000000000000000000000000000000000000081525081526020016040518060400160405280600681526020017f63616e636572000000000000000000000000000000000000000000000000000081525081526020016040518060400160405280600781526020017f73636f7270696f0000000000000000000000000000000000000000000000000081525081526020016040518060400160405280600681526020017f7069736365730000000000000000000000000000000000000000000000000000815250815250600f90600b62000a5992919062000d1d565b5034801562000a6757600080fd5b506040518060400160405280600981526020017f5a6f646961634e465400000000000000000000000000000000000000000000008152506040518060400160405280600681526020017f5a4f444941430000000000000000000000000000000000000000000000000000815250816000908051906020019062000aec92919062000c25565b50806001908051906020019062000b0592919062000c25565b50505062000b536040518060400160405280601481526020017f436f6e747261637420696e697469616c697a656400000000000000000000000081525062000b5960201b620012c01760201c565b62000f3e565b62000bf98160405160240162000b70919062000e52565b6040516020818303038152906040527f41304fac000000000000000000000000000000000000000000000000000000007bffffffffffffffffffffffffffffffffffffffffffffffffffffffff19166020820180517bffffffffffffffffffffffffffffffffffffffffffffffffffffffff838183161783525050505062000bfc60201b60201c565b50565b60008151905060006a636f6e736f6c652e6c6f679050602083016000808483855afa5050505050565b82805462000c339062000ec8565b90600052602060002090601f01602090048101928262000c57576000855562000ca3565b82601f1062000c7257805160ff191683800117855562000ca3565b8280016001018555821562000ca3579182015b8281111562000ca257825182559160200191906001019062000c85565b5b50905062000cb2919062000d84565b5090565b82805482825590600052602060002090810192821562000d0a579160200282015b8281111562000d0957825182908051906020019062000cf892919062000c25565b509160200191906001019062000cd7565b5b50905062000d19919062000da3565b5090565b82805482825590600052602060002090810192821562000d71579160200282015b8281111562000d7057825182908051906020019062000d5f92919062000c25565b509160200191906001019062000d3e565b5b50905062000d80919062000da3565b5090565b5b8082111562000d9f57600081600090555060010162000d85565b5090565b5b8082111562000dc7576000818162000dbd919062000dcb565b5060010162000da4565b5090565b50805462000dd99062000ec8565b6000825580601f1062000ded575062000e0e565b601f01602090049060005260206000209081019062000e0d919062000d84565b5b50565b600062000e1e8262000e76565b62000e2a818562000e81565b935062000e3c81856020860162000e92565b62000e478162000f2d565b840191505092915050565b6000602082019050818103600083015262000e6e818462000e11565b905092915050565b600081519050919050565b600082825260208201905092915050565b60005b8381101562000eb257808201518184015260208101905062000e95565b8381111562000ec2576000848401525b50505050565b6000600282049050600182168062000ee157607f821691505b6020821081141562000ef85762000ef762000efe565b5b50919050565b7f4e487b7100000000000000000000000000000000000000000000000000000000600052602260045260246000fd5b6000601f19601f8301169050919050565b613b158062000f4e6000396000f3fe608060405234801561001057600080fd5b50600436106101215760003560e01c806370a08231116100ad578063b4c3b8be11610071578063b4c3b8be1461032c578063b88d4fde1461034a578063c575757a14610366578063c87b56dd14610396578063e985e9c5146103c657610121565b806370a082311461028857806395d89b41146102b8578063a22cb465146102d6578063b036b4bd146102f2578063b187301f146102fc57610121565b806323b872dd116100f457806323b872dd146101c05780632de38d68146101dc57806342842e0e1461020c578063514dc8c6146102285780636352211e1461025857610121565b806301ffc9a71461012657806306fdde0314610156578063081812fc14610174578063095ea7b3146101a4575b600080fd5b610140600480360381019061013b91906126c0565b6103f6565b60405161014d919061336b565b60405180910390f35b61015e6104d8565b60405161016b9190613386565b60405180910390f35b61018e60048036038101906101899190612712565b61056a565b60405161019b91906132db565b60405180910390f35b6101be60048036038101906101b99190612684565b6105ef565b005b6101da60048036038101906101d5919061257e565b610707565b005b6101f660048036038101906101f19190612712565b610767565b6040516102039190613386565b60405180910390f35b6102266004803603810190610221919061257e565b610885565b005b610242600480360381019061023d9190612712565b6108a5565b60405161024f9190613386565b60405180910390f35b610272600480360381019061026d9190612712565b6109c3565b60405161027f91906132db565b60405180910390f35b6102a2600480360381019061029d9190612519565b610a75565b6040516102af9190613606565b60405180910390f35b6102c0610b2d565b6040516102cd9190613386565b60405180910390f35b6102f060048036038101906102eb9190612648565b610bbf565b005b6102fa610bd5565b005b61031660048036038101906103119190612712565b610e2b565b6040516103239190613386565b60405180910390f35b610334610f49565b6040516103419190613606565b60405180910390f35b610364600480360381019061035f91906125cd565b610f5a565b005b610380600480360381019061037b9190612712565b610fbc565b60405161038d9190613386565b60405180910390f35b6103b060048036038101906103ab9190612712565b6110da565b6040516103bd9190613386565b60405180910390f35b6103e060048036038101906103db9190612542565b61122c565b6040516103ed919061336b565b60405180910390f35b60007f80ac58cd000000000000000000000000000000000000000000000000000000007bffffffffffffffffffffffffffffffffffffffffffffffffffffffff1916827bffffffffffffffffffffffffffffffffffffffffffffffffffffffff191614806104c157507f5b5e139f000000000000000000000000000000000000000000000000000000007bffffffffffffffffffffffffffffffffffffffffffffffffffffffff1916827bffffffffffffffffffffffffffffffffffffffffffffffffffffffff1916145b806104d157506104d082611359565b5b9050919050565b6060600080546104e7906138a5565b80601f0160208091040260200160405190810160405280929190818152602001828054610513906138a5565b80156105605780601f1061053557610100808354040283529160200191610560565b820191906000526020600020905b81548152906001019060200180831161054357829003601f168201915b5050505050905090565b6000610575826113c3565b6105b4576040517f08c379a00000000000000000000000000000000000000000000000000000000081526004016105ab90613566565b60405180910390fd5b6004600083815260200190815260200160002060009054906101000a900473ffffffffffffffffffffffffffffffffffffffff169050919050565b60006105fa826109c3565b90508073ffffffffffffffffffffffffffffffffffffffff168373ffffffffffffffffffffffffffffffffffffffff16141561066b576040517f08c379a0000000000000000000000000000000000000000000000000000000008152600401610662906135c6565b60405180910390fd5b8073ffffffffffffffffffffffffffffffffffffffff1661068a61142f565b73ffffffffffffffffffffffffffffffffffffffff1614806106b957506106b8816106b361142f565b61122c565b5b6106f8576040517f08c379a00000000000000000000000000000000000000000000000000000000081526004016106ef906134a6565b60405180910390fd5b6107028383611437565b505050565b61071861071261142f565b826114f0565b610757576040517f08c379a000000000000000000000000000000000000000000000000000000000815260040161074e906135e6565b60405180910390fd5b6107628383836115ce565b505050565b6060600061079b6107778461182a565b6040516020016107879190613275565b6040516020818303038152906040526119d7565b9050600d80549050816107ae9190613920565b9050600d81815481106107ea577f4e487b7100000000000000000000000000000000000000000000000000000000600052603260045260246000fd5b9060005260206000200180546107ff906138a5565b80601f016020809104026020016040519081016040528092919081815260200182805461082b906138a5565b80156108785780601f1061084d57610100808354040283529160200191610878565b820191906000526020600020905b81548152906001019060200180831161085b57829003601f168201915b5050505050915050919050565b6108a083838360405180602001604052806000815250610f5a565b505050565b606060006108d96108b58461182a565b6040516020016108c591906132b9565b6040516020818303038152906040526119d7565b9050600c80549050816108ec9190613920565b9050600c8181548110610928577f4e487b7100000000000000000000000000000000000000000000000000000000600052603260045260246000fd5b90600052602060002001805461093d906138a5565b80601f0160208091040260200160405190810160405280929190818152602001828054610969906138a5565b80156109b65780601f1061098b576101008083540402835291602001916109b6565b820191906000526020600020905b81548152906001019060200180831161099957829003601f168201915b5050505050915050919050565b6000806002600084815260200190815260200160002060009054906101000a900473ffffffffffffffffffffffffffffffffffffffff169050600073ffffffffffffffffffffffffffffffffffffffff168173ffffffffffffffffffffffffffffffffffffffff161415610a6c576040517f08c379a0000000000000000000000000000000000000000000000000000000008152600401610a63906134e6565b60405180910390fd5b80915050919050565b60008073ffffffffffffffffffffffffffffffffffffffff168273ffffffffffffffffffffffffffffffffffffffff161415610ae6576040517f08c379a0000000000000000000000000000000000000000000000000000000008152600401610add906134c6565b60405180910390fd5b600360008373ffffffffffffffffffffffffffffffffffffffff1673ffffffffffffffffffffffffffffffffffffffff168152602001908152602001600020549050919050565b606060018054610b3c906138a5565b80601f0160208091040260200160405190810160405280929190818152602001828054610b68906138a5565b8015610bb55780601f10610b8a57610100808354040283529160200191610bb5565b820191906000526020600020905b815481529060010190602001808311610b9857829003601f168201915b5050505050905090565b610bd1610bca61142f565b8383611a0a565b5050565b6000610be16007611b77565b9050600954811115610c28576040517f08c379a0000000000000000000000000000000000000000000000000000000008152600401610c1f906133e6565b60405180910390fd5b6000610c3382610767565b90506000610c4083610e2b565b90506000610c4d84610fbc565b90506000838383604051602001610c669392919061317f565b60405160208183030381529060405290506000610c82866108a5565b90506000600a8284604051602001610c9c939291906131b0565b60405160208183030381529060405290506000610ce184610cbc84611b85565b604051602001610ccd929190613230565b604051602081830303815290604052611b85565b9050600081604051602001610cf69190613297565b6040516020818303038152906040529050610d456040518060400160405280601581526020017f0a2d2d2d2d2d2d2d2d2d2d2d2d2d2d2d2d2d2d2d2d00000000000000000000008152506112c0565b610d4e816112c0565b610d8c6040518060400160405280601581526020017f2d2d2d2d2d2d2d2d2d2d2d2d2d2d2d2d2d2d2d2d0a00000000000000000000008152506112c0565b610d96338a611d43565b610da08982611d61565b610daa6007611dd5565b610dcd604051806060016040528060258152602001613a7b602591398a33611deb565b7f1c05098ed1ff38e6238d2b1b04b2c7977d4c94ce651bda6473f9dba8dbf01da0338a604051610dfe929190613342565b60405180910390a1600160086000828254610e1991906136da565b92505081905550505050505050505050565b60606000610e5f610e3b8461182a565b604051602001610e4b919061320e565b6040516020818303038152906040526119d7565b9050600e8054905081610e729190613920565b9050600e8181548110610eae577f4e487b7100000000000000000000000000000000000000000000000000000000600052603260045260246000fd5b906000526020600020018054610ec3906138a5565b80601f0160208091040260200160405190810160405280929190818152602001828054610eef906138a5565b8015610f3c5780601f10610f1157610100808354040283529160200191610f3c565b820191906000526020600020905b815481529060010190602001808311610f1f57829003601f168201915b5050505050915050919050565b6000610f556007611b77565b905090565b610f6b610f6561142f565b836114f0565b610faa576040517f08c379a0000000000000000000000000000000000000000000000000000000008152600401610fa1906135e6565b60405180910390fd5b610fb684848484611e8a565b50505050565b60606000610ff0610fcc8461182a565b604051602001610fdc91906131ec565b6040516020818303038152906040526119d7565b9050600f80549050816110039190613920565b9050600f818154811061103f577f4e487b7100000000000000000000000000000000000000000000000000000000600052603260045260246000fd5b906000526020600020018054611054906138a5565b80601f0160208091040260200160405190810160405280929190818152602001828054611080906138a5565b80156110cd5780601f106110a2576101008083540402835291602001916110cd565b820191906000526020600020905b8154815290600101906020018083116110b057829003601f168201915b5050505050915050919050565b60606110e5826113c3565b611124576040517f08c379a000000000000000000000000000000000000000000000000000000000815260040161111b90613546565b60405180910390fd5b6000600660008481526020019081526020016000208054611144906138a5565b80601f0160208091040260200160405190810160405280929190818152602001828054611170906138a5565b80156111bd5780601f10611192576101008083540402835291602001916111bd565b820191906000526020600020905b8154815290600101906020018083116111a057829003601f168201915b5050505050905060006111ce611ee6565b90506000815114156111e4578192505050611227565b60008251111561121957808260405160200161120192919061315b565b60405160208183030381529060405292505050611227565b61122284611efd565b925050505b919050565b6000600560008473ffffffffffffffffffffffffffffffffffffffff1673ffffffffffffffffffffffffffffffffffffffff16815260200190815260200160002060008373ffffffffffffffffffffffffffffffffffffffff1673ffffffffffffffffffffffffffffffffffffffff16815260200190815260200160002060009054906101000a900460ff16905092915050565b611356816040516024016112d49190613386565b6040516020818303038152906040527f41304fac000000000000000000000000000000000000000000000000000000007bffffffffffffffffffffffffffffffffffffffffffffffffffffffff19166020820180517bffffffffffffffffffffffffffffffffffffffffffffffffffffffff8381831617835250505050611fa4565b50565b60007f01ffc9a7000000000000000000000000000000000000000000000000000000007bffffffffffffffffffffffffffffffffffffffffffffffffffffffff1916827bffffffffffffffffffffffffffffffffffffffffffffffffffffffff1916149050919050565b60008073ffffffffffffffffffffffffffffffffffffffff166002600084815260200190815260200160002060009054906101000a900473ffffffffffffffffffffffffffffffffffffffff1673ffffffffffffffffffffffffffffffffffffffff1614159050919050565b600033905090565b816004600083815260200190815260200160002060006101000a81548173ffffffffffffffffffffffffffffffffffffffff021916908373ffffffffffffffffffffffffffffffffffffffff160217905550808273ffffffffffffffffffffffffffffffffffffffff166114aa836109c3565b73ffffffffffffffffffffffffffffffffffffffff167f8c5be1e5ebec7d5bd14f71427d1e84f3dd0314c0f7b2291e5b200ac8c7c3b92560405160405180910390a45050565b60006114fb826113c3565b61153a576040517f08c379a000000000000000000000000000000000000000000000000000000000815260040161153190613486565b60405180910390fd5b6000611545836109c3565b90508073ffffffffffffffffffffffffffffffffffffffff168473ffffffffffffffffffffffffffffffffffffffff1614806115b457508373ffffffffffffffffffffffffffffffffffffffff1661159c8461056a565b73ffffffffffffffffffffffffffffffffffffffff16145b806115c557506115c4818561122c565b5b91505092915050565b8273ffffffffffffffffffffffffffffffffffffffff166115ee826109c3565b73ffffffffffffffffffffffffffffffffffffffff1614611644576040517f08c379a000000000000000000000000000000000000000000000000000000000815260040161163b90613586565b60405180910390fd5b600073ffffffffffffffffffffffffffffffffffffffff168273ffffffffffffffffffffffffffffffffffffffff1614156116b4576040517f08c379a00000000000000000000000000000000000000000000000000000000081526004016116ab90613446565b60405180910390fd5b6116bf838383611fcd565b6116ca600082611437565b6001600360008573ffffffffffffffffffffffffffffffffffffffff1673ffffffffffffffffffffffffffffffffffffffff168152602001908152602001600020600082825461171a91906137bb565b925050819055506001600360008473ffffffffffffffffffffffffffffffffffffffff1673ffffffffffffffffffffffffffffffffffffffff168152602001908152602001600020600082825461177191906136da565b92505081905550816002600083815260200190815260200160002060006101000a81548173ffffffffffffffffffffffffffffffffffffffff021916908373ffffffffffffffffffffffffffffffffffffffff160217905550808273ffffffffffffffffffffffffffffffffffffffff168473ffffffffffffffffffffffffffffffffffffffff167fddf252ad1be2c89b69c2b068fc378daa952ba7f163c4a11628f55a4df523b3ef60405160405180910390a4505050565b60606000821415611872576040518060400160405280600181526020017f300000000000000000000000000000000000000000000000000000000000000081525090506119d2565b600082905060005b600082146118a457808061188d906138d7565b915050600a8261189d9190613730565b915061187a565b60008167ffffffffffffffff8111156118e6577f4e487b7100000000000000000000000000000000000000000000000000000000600052604160045260246000fd5b6040519080825280601f01601f1916602001820160405280156119185781602001600182028036833780820191505090505b5090505b600085146119cb5760018261193191906137bb565b9150600a856119409190613920565b603061194c91906136da565b60f81b818381518110611988577f4e487b7100000000000000000000000000000000000000000000000000000000600052603260045260246000fd5b60200101907effffffffffffffffffffffffffffffffffffffffffffffffffffffffffffff1916908160001a905350600a856119c49190613730565b945061191c565b8093505050505b919050565b6000816040516020016119ea9190613144565b6040516020818303038152906040528051906020012060001c9050919050565b8173ffffffffffffffffffffffffffffffffffffffff168373ffffffffffffffffffffffffffffffffffffffff161415611a79576040517f08c379a0000000000000000000000000000000000000000000000000000000008152600401611a7090613466565b60405180910390fd5b80600560008573ffffffffffffffffffffffffffffffffffffffff1673ffffffffffffffffffffffffffffffffffffffff16815260200190815260200160002060008473ffffffffffffffffffffffffffffffffffffffff1673ffffffffffffffffffffffffffffffffffffffff16815260200190815260200160002060006101000a81548160ff0219169083151502179055508173ffffffffffffffffffffffffffffffffffffffff168373ffffffffffffffffffffffffffffffffffffffff167f17307eab39ab6107e8899845ad3d59bd9653f200f220920489ca2b5937696c3183604051611b6a919061336b565b60405180910390a3505050565b600081600001549050919050565b60606000825190506000811415611bae5760405180602001604052806000815250915050611d3e565b60006003600283611bbf91906136da565b611bc99190613730565b6004611bd59190613761565b90506000602082611be691906136da565b67ffffffffffffffff811115611c25577f4e487b7100000000000000000000000000000000000000000000000000000000600052604160045260246000fd5b6040519080825280601f01601f191660200182016040528015611c575781602001600182028036833780820191505090505b5090506000604051806060016040528060408152602001613aa0604091399050600181016020830160005b86811015611cfb5760038101905062ffffff818a015116603f8160121c168401518060081b905060ff603f83600c1c1686015116810190508060081b905060ff603f8360061c1686015116810190508060081b905060ff603f831686015116810190508060e01b90508084526004840193505050611c82565b506003860660018114611d155760028114611d2557611d30565b613d3d60f01b6002830352611d30565b603d60f81b60018303525b508484525050819450505050505b919050565b611d5d828260405180602001604052806000815250611fd2565b5050565b611d6a826113c3565b611da9576040517f08c379a0000000000000000000000000000000000000000000000000000000008152600401611da090613506565b60405180910390fd5b80600660008481526020019081526020016000209080519060200190611dd09291906123a5565b505050565b6001816000016000828254019250508190555050565b611e85838383604051602401611e03939291906133a8565b6040516020818303038152906040527fe3849f79000000000000000000000000000000000000000000000000000000007bffffffffffffffffffffffffffffffffffffffffffffffffffffffff19166020820180517bffffffffffffffffffffffffffffffffffffffffffffffffffffffff8381831617835250505050611fa4565b505050565b611e958484846115ce565b611ea18484848461202d565b611ee0576040517f08c379a0000000000000000000000000000000000000000000000000000000008152600401611ed790613406565b60405180910390fd5b50505050565b606060405180602001604052806000815250905090565b6060611f08826113c3565b611f47576040517f08c379a0000000000000000000000000000000000000000000000000000000008152600401611f3e906135a6565b60405180910390fd5b6000611f51611ee6565b90506000815111611f715760405180602001604052806000815250611f9c565b80611f7b8461182a565b604051602001611f8c92919061315b565b6040516020818303038152906040525b915050919050565b60008151905060006a636f6e736f6c652e6c6f679050602083016000808483855afa5050505050565b505050565b611fdc83836121c4565b611fe9600084848461202d565b612028576040517f08c379a000000000000000000000000000000000000000000000000000000000815260040161201f90613406565b60405180910390fd5b505050565b600061204e8473ffffffffffffffffffffffffffffffffffffffff16612392565b156121b7578373ffffffffffffffffffffffffffffffffffffffff1663150b7a0261207761142f565b8786866040518563ffffffff1660e01b815260040161209994939291906132f6565b602060405180830381600087803b1580156120b357600080fd5b505af19250505080156120e457506040513d601f19601f820116820180604052508101906120e191906126e9565b60015b612167573d8060008114612114576040519150601f19603f3d011682016040523d82523d6000602084013e612119565b606091505b5060008151141561215f576040517f08c379a000000000000000000000000000000000000000000000000000000000815260040161215690613406565b60405180910390fd5b805181602001fd5b63150b7a0260e01b7bffffffffffffffffffffffffffffffffffffffffffffffffffffffff1916817bffffffffffffffffffffffffffffffffffffffffffffffffffffffff1916149150506121bc565b600190505b949350505050565b600073ffffffffffffffffffffffffffffffffffffffff168273ffffffffffffffffffffffffffffffffffffffff161415612234576040517f08c379a000000000000000000000000000000000000000000000000000000000815260040161222b90613526565b60405180910390fd5b61223d816113c3565b1561227d576040517f08c379a000000000000000000000000000000000000000000000000000000000815260040161227490613426565b60405180910390fd5b61228960008383611fcd565b6001600360008473ffffffffffffffffffffffffffffffffffffffff1673ffffffffffffffffffffffffffffffffffffffff16815260200190815260200160002060008282546122d991906136da565b92505081905550816002600083815260200190815260200160002060006101000a81548173ffffffffffffffffffffffffffffffffffffffff021916908373ffffffffffffffffffffffffffffffffffffffff160217905550808273ffffffffffffffffffffffffffffffffffffffff16600073ffffffffffffffffffffffffffffffffffffffff167fddf252ad1be2c89b69c2b068fc378daa952ba7f163c4a11628f55a4df523b3ef60405160405180910390a45050565b600080823b905060008111915050919050565b8280546123b1906138a5565b90600052602060002090601f0160209004810192826123d3576000855561241a565b82601f106123ec57805160ff191683800117855561241a565b8280016001018555821561241a579182015b828111156124195782518255916020019190600101906123fe565b5b509050612427919061242b565b5090565b5b8082111561244457600081600090555060010161242c565b5090565b600061245b61245684613652565b613621565b90508281526020810184848401111561247357600080fd5b61247e848285613863565b509392505050565b60008135905061249581613a1e565b92915050565b6000813590506124aa81613a35565b92915050565b6000813590506124bf81613a4c565b92915050565b6000815190506124d481613a4c565b92915050565b600082601f8301126124eb57600080fd5b81356124fb848260208601612448565b91505092915050565b60008135905061251381613a63565b92915050565b60006020828403121561252b57600080fd5b600061253984828501612486565b91505092915050565b6000806040838503121561255557600080fd5b600061256385828601612486565b925050602061257485828601612486565b9150509250929050565b60008060006060848603121561259357600080fd5b60006125a186828701612486565b93505060206125b286828701612486565b92505060406125c386828701612504565b9150509250925092565b600080600080608085870312156125e357600080fd5b60006125f187828801612486565b945050602061260287828801612486565b935050604061261387828801612504565b925050606085013567ffffffffffffffff81111561263057600080fd5b61263c878288016124da565b91505092959194509250565b6000806040838503121561265b57600080fd5b600061266985828601612486565b925050602061267a8582860161249b565b9150509250929050565b6000806040838503121561269757600080fd5b60006126a585828601612486565b92505060206126b685828601612504565b9150509250929050565b6000602082840312156126d257600080fd5b60006126e0848285016124b0565b91505092915050565b6000602082840312156126fb57600080fd5b6000612709848285016124c5565b91505092915050565b60006020828403121561272457600080fd5b600061273284828501612504565b91505092915050565b612744816137ef565b82525050565b61275381613801565b82525050565b600061276482613697565b61276e81856136ad565b935061277e818560208601613872565b61278781613a0d565b840191505092915050565b600061279d826136a2565b6127a781856136be565b93506127b7818560208601613872565b6127c081613a0d565b840191505092915050565b60006127d6826136a2565b6127e081856136cf565b93506127f0818560208601613872565b80840191505092915050565b60008154612809816138a5565b61281381866136cf565b9450600182166000811461282e576001811461283f57612872565b60ff19831686528186019350612872565b61284885613682565b60005b8381101561286a5781548189015260018201915060208101905061284b565b838801955050505b50505092915050565b60006128886014836136be565b91507f4d6178696d756d206d696e7420726561636865640000000000000000000000006000830152602082019050919050565b60006128c86032836136be565b91507f4552433732313a207472616e7366657220746f206e6f6e20455243373231526560008301527f63656976657220696d706c656d656e74657200000000000000000000000000006020830152604082019050919050565b600061292e601c836136be565b91507f4552433732313a20746f6b656e20616c7265616479206d696e746564000000006000830152602082019050919050565b600061296e600a836136cf565b91507f54484952445f574f5244000000000000000000000000000000000000000000006000830152600a82019050919050565b60006129ae6024836136be565b91507f4552433732313a207472616e7366657220746f20746865207a65726f2061646460008301527f72657373000000000000000000000000000000000000000000000000000000006020830152604082019050919050565b6000612a146019836136be565b91507f4552433732313a20617070726f766520746f2063616c6c6572000000000000006000830152602082019050919050565b6000612a54600b836136cf565b91507f5345434f4e445f574f52440000000000000000000000000000000000000000006000830152600b82019050919050565b6000612a94602c836136be565b91507f4552433732313a206f70657261746f7220717565727920666f72206e6f6e657860008301527f697374656e7420746f6b656e00000000000000000000000000000000000000006020830152604082019050919050565b6000612afa600d836136cf565b91507f3c2f746578743e3c2f7376673e000000000000000000000000000000000000006000830152600d82019050919050565b6000612b3a6038836136be565b91507f4552433732313a20617070726f76652063616c6c6572206973206e6f74206f7760008301527f6e6572206e6f7220617070726f76656420666f7220616c6c00000000000000006020830152604082019050919050565b6000612ba0604b836136cf565b91507f222c20226465736372697074696f6e223a202253756e2c204d6f6f6e2c20526960008301527f73696e67222c2022696d616765223a2022646174613a696d6167652f7376672b60208301527f786d6c3b6261736536342c0000000000000000000000000000000000000000006040830152604b82019050919050565b6000612c2c602a836136be565b91507f4552433732313a2062616c616e636520717565727920666f7220746865207a6560008301527f726f2061646472657373000000000000000000000000000000000000000000006020830152604082019050919050565b6000612c926029836136be565b91507f4552433732313a206f776e657220717565727920666f72206e6f6e657869737460008301527f656e7420746f6b656e00000000000000000000000000000000000000000000006020830152604082019050919050565b6000612cf8602e836136be565b91507f45524337323155524953746f726167653a2055524920736574206f66206e6f6e60008301527f6578697374656e7420746f6b656e0000000000000000000000000000000000006020830152604082019050919050565b6000612d5e6002836136cf565b91507f227d0000000000000000000000000000000000000000000000000000000000006000830152600282019050919050565b6000612d9e6020836136be565b91507f4552433732313a206d696e7420746f20746865207a65726f20616464726573736000830152602082019050919050565b6000612dde6031836136be565b91507f45524337323155524953746f726167653a2055524920717565727920666f722060008301527f6e6f6e6578697374656e7420746f6b656e0000000000000000000000000000006020830152604082019050919050565b6000612e44602c836136be565b91507f4552433732313a20617070726f76656420717565727920666f72206e6f6e657860008301527f697374656e7420746f6b656e00000000000000000000000000000000000000006020830152604082019050919050565b6000612eaa6029836136be565b91507f4552433732313a207472616e73666572206f6620746f6b656e2074686174206960008301527f73206e6f74206f776e00000000000000000000000000000000000000000000006020830152604082019050919050565b6000612f10602f836136be565b91507f4552433732314d657461646174613a2055524920717565727920666f72206e6f60008301527f6e6578697374656e7420746f6b656e00000000000000000000000000000000006020830152604082019050919050565b6000612f76600a836136cf565b91507f7b226e616d65223a2022000000000000000000000000000000000000000000006000830152600a82019050919050565b6000612fb66021836136be565b91507f4552433732313a20617070726f76616c20746f2063757272656e74206f776e6560008301527f72000000000000000000000000000000000000000000000000000000000000006020830152604082019050919050565b600061301c600a836136cf565b91507f46495253545f574f5244000000000000000000000000000000000000000000006000830152600a82019050919050565b600061305c601d836136cf565b91507f646174613a6170706c69636174696f6e2f6a736f6e3b6261736536342c0000006000830152601d82019050919050565b600061309c6031836136be565b91507f4552433732313a207472616e736665722063616c6c6572206973206e6f74206f60008301527f776e6572206e6f7220617070726f7665640000000000000000000000000000006020830152604082019050919050565b60006131026005836136cf565b91507f434f4c4f520000000000000000000000000000000000000000000000000000006000830152600582019050919050565b61313e81613859565b82525050565b600061315082846127cb565b915081905092915050565b600061316782856127cb565b915061317382846127cb565b91508190509392505050565b600061318b82866127cb565b915061319782856127cb565b91506131a382846127cb565b9150819050949350505050565b60006131bc82866127fc565b91506131c882856127cb565b91506131d482846127cb565b91506131df82612aed565b9150819050949350505050565b60006131f782612961565b915061320382846127cb565b915081905092915050565b600061321982612a47565b915061322582846127cb565b915081905092915050565b600061323b82612f69565b915061324782856127cb565b915061325282612b93565b915061325e82846127cb565b915061326982612d51565b91508190509392505050565b60006132808261300f565b915061328c82846127cb565b915081905092915050565b60006132a28261304f565b91506132ae82846127cb565b915081905092915050565b60006132c4826130f5565b91506132d082846127cb565b915081905092915050565b60006020820190506132f0600083018461273b565b92915050565b600060808201905061330b600083018761273b565b613318602083018661273b565b6133256040830185613135565b81810360608301526133378184612759565b905095945050505050565b6000604082019050613357600083018561273b565b6133646020830184613135565b9392505050565b6000602082019050613380600083018461274a565b92915050565b600060208201905081810360008301526133a08184612792565b905092915050565b600060608201905081810360008301526133c28186612792565b90506133d16020830185613135565b6133de604083018461273b565b949350505050565b600060208201905081810360008301526133ff8161287b565b9050919050565b6000602082019050818103600083015261341f816128bb565b9050919050565b6000602082019050818103600083015261343f81612921565b9050919050565b6000602082019050818103600083015261345f816129a1565b9050919050565b6000602082019050818103600083015261347f81612a07565b9050919050565b6000602082019050818103600083015261349f81612a87565b9050919050565b600060208201905081810360008301526134bf81612b2d565b9050919050565b600060208201905081810360008301526134df81612c1f565b9050919050565b600060208201905081810360008301526134ff81612c85565b9050919050565b6000602082019050818103600083015261351f81612ceb565b9050919050565b6000602082019050818103600083015261353f81612d91565b9050919050565b6000602082019050818103600083015261355f81612dd1565b9050919050565b6000602082019050818103600083015261357f81612e37565b9050919050565b6000602082019050818103600083015261359f81612e9d565b9050919050565b600060208201905081810360008301526135bf81612f03565b9050919050565b600060208201905081810360008301526135df81612fa9565b9050919050565b600060208201905081810360008301526135ff8161308f565b9050919050565b600060208201905061361b6000830184613135565b92915050565b6000604051905081810181811067ffffffffffffffff82111715613648576136476139de565b5b8060405250919050565b600067ffffffffffffffff82111561366d5761366c6139de565b5b601f19601f8301169050602081019050919050565b60008190508160005260206000209050919050565b600081519050919050565b600081519050919050565b600082825260208201905092915050565b600082825260208201905092915050565b600081905092915050565b60006136e582613859565b91506136f083613859565b9250827fffffffffffffffffffffffffffffffffffffffffffffffffffffffffffffffff0382111561372557613724613951565b5b828201905092915050565b600061373b82613859565b915061374683613859565b92508261375657613755613980565b5b828204905092915050565b600061376c82613859565b915061377783613859565b9250817fffffffffffffffffffffffffffffffffffffffffffffffffffffffffffffffff04831182151516156137b0576137af613951565b5b828202905092915050565b60006137c682613859565b91506137d183613859565b9250828210156137e4576137e3613951565b5b828203905092915050565b60006137fa82613839565b9050919050565b60008115159050919050565b60007fffffffff0000000000000000000000000000000000000000000000000000000082169050919050565b600073ffffffffffffffffffffffffffffffffffffffff82169050919050565b6000819050919050565b82818337600083830152505050565b60005b83811015613890578082015181840152602081019050613875565b8381111561389f576000848401525b50505050565b600060028204905060018216806138bd57607f821691505b602082108114156138d1576138d06139af565b5b50919050565b60006138e282613859565b91507fffffffffffffffffffffffffffffffffffffffffffffffffffffffffffffffff82141561391557613914613951565b5b600182019050919050565b600061392b82613859565b915061393683613859565b92508261394657613945613980565b5b828206905092915050565b7f4e487b7100000000000000000000000000000000000000000000000000000000600052601160045260246000fd5b7f4e487b7100000000000000000000000000000000000000000000000000000000600052601260045260246000fd5b7f4e487b7100000000000000000000000000000000000000000000000000000000600052602260045260246000fd5b7f4e487b7100000000000000000000000000000000000000000000000000000000600052604160045260246000fd5b6000601f19601f8301169050919050565b613a27816137ef565b8114613a3257600080fd5b50565b613a3e81613801565b8114613a4957600080fd5b50565b613a558161380d565b8114613a6057600080fd5b50565b613a6c81613859565b8114613a7757600080fd5b5056fe416e204e465420772f20494420257320686173206265656e206d696e74656420746f2025734142434445464748494a4b4c4d4e4f505152535455565758595a6162636465666768696a6b6c6d6e6f707172737475767778797a303132333435363738392b2fa26469706673582212207bcceeed238797623d60b7f192dd0bf6b41d77252c31e43cf4a070d21d1688bd64736f6c634300080000333c73766720786d6c6e733d27687474703a2f2f7777772e77332e6f72672f323030302f73766727207072657365727665417370656374526174696f3d27784d696e594d696e206d656574272076696577426f783d273020302033353020333530273e3c7374796c653e2e62617365207b2066696c6c3a2077686974653b20666f6e742d66616d696c793a2073657269663b20666f6e742d73697a653a20323470783b207d3c2f7374796c653e3c726563742077696474683d273130302527206865696768743d2731303025272066696c6c3d27272f3e3c7465787420783d273530252720793d273530252720636c6173733d27626173652720646f6d696e616e742d626173656c696e653d276d6964646c652720746578742d616e63686f723d276d6964646c65273e",
  "linkReferences": {},
  "deployedLinkReferences": {}
}