{
  "_format": "hh-sol-artifact-1",
  "contractName": "MyEpicNFT",
  "sourceName": "contracts/MyEpicNFT.sol",
  "abi": [
    {
      "inputs": [],
      "stateMutability": "nonpayable",
      "type": "constructor"
    },
    {
      "anonymous": false,
      "inputs": [
        {
          "indexed": true,
          "internalType": "address",
          "name": "owner",
          "type": "address"
        },
        {
          "indexed": true,
          "internalType": "address",
          "name": "approved",
          "type": "address"
        },
        {
          "indexed": true,
          "internalType": "uint256",
          "name": "tokenId",
          "type": "uint256"
        }
      ],
      "name": "Approval",
      "type": "event"
    },
    {
      "anonymous": false,
      "inputs": [
        {
          "indexed": true,
          "internalType": "address",
          "name": "owner",
          "type": "address"
        },
        {
          "indexed": true,
          "internalType": "address",
          "name": "operator",
          "type": "address"
        },
        {
          "indexed": false,
          "internalType": "bool",
          "name": "approved",
          "type": "bool"
        }
      ],
      "name": "ApprovalForAll",
      "type": "event"
    },
    {
      "anonymous": false,
      "inputs": [
        {
          "indexed": false,
          "internalType": "address",
          "name": "sender",
          "type": "address"
        },
        {
          "indexed": false,
          "internalType": "uint256",
          "name": "tokenId",
          "type": "uint256"
        }
      ],
      "name": "NewNFTMinted",
      "type": "event"
    },
    {
      "anonymous": false,
      "inputs": [
        {
          "indexed": true,
          "internalType": "address",
          "name": "from",
          "type": "address"
        },
        {
          "indexed": true,
          "internalType": "address",
          "name": "to",
          "type": "address"
        },
        {
          "indexed": true,
          "internalType": "uint256",
          "name": "tokenId",
          "type": "uint256"
        }
      ],
      "name": "Transfer",
      "type": "event"
    },
    {
      "inputs": [
        {
          "internalType": "address",
          "name": "to",
          "type": "address"
        },
        {
          "internalType": "uint256",
          "name": "tokenId",
          "type": "uint256"
        }
      ],
      "name": "approve",
      "outputs": [],
      "stateMutability": "nonpayable",
      "type": "function"
    },
    {
      "inputs": [
        {
          "internalType": "address",
          "name": "owner",
          "type": "address"
        }
      ],
      "name": "balanceOf",
      "outputs": [
        {
          "internalType": "uint256",
          "name": "",
          "type": "uint256"
        }
      ],
      "stateMutability": "view",
      "type": "function"
    },
    {
      "inputs": [
        {
          "internalType": "uint256",
          "name": "tokenId",
          "type": "uint256"
        }
      ],
      "name": "getApproved",
      "outputs": [
        {
          "internalType": "address",
          "name": "",
          "type": "address"
        }
      ],
      "stateMutability": "view",
      "type": "function"
    },
    {
      "inputs": [],
      "name": "getTotalNFTsMinted",
      "outputs": [
        {
          "internalType": "uint256",
          "name": "",
          "type": "uint256"
        }
      ],
      "stateMutability": "view",
      "type": "function"
    },
    {
      "inputs": [
        {
          "internalType": "address",
          "name": "owner",
          "type": "address"
        },
        {
          "internalType": "address",
          "name": "operator",
          "type": "address"
        }
      ],
      "name": "isApprovedForAll",
      "outputs": [
        {
          "internalType": "bool",
          "name": "",
          "type": "bool"
        }
      ],
      "stateMutability": "view",
      "type": "function"
    },
    {
      "inputs": [],
      "name": "makeNFT",
      "outputs": [],
      "stateMutability": "nonpayable",
      "type": "function"
    },
    {
      "inputs": [],
      "name": "name",
      "outputs": [
        {
          "internalType": "string",
          "name": "",
          "type": "string"
        }
      ],
      "stateMutability": "view",
      "type": "function"
    },
    {
      "inputs": [
        {
          "internalType": "uint256",
          "name": "tokenId",
          "type": "uint256"
        }
      ],
      "name": "ownerOf",
      "outputs": [
        {
          "internalType": "address",
          "name": "",
          "type": "address"
        }
      ],
      "stateMutability": "view",
      "type": "function"
    },
    {
      "inputs": [
        {
          "internalType": "uint256",
          "name": "tokenId",
          "type": "uint256"
        }
      ],
      "name": "pickRandomColor",
      "outputs": [
        {
          "internalType": "string",
          "name": "",
          "type": "string"
        }
      ],
      "stateMutability": "view",
      "type": "function"
    },
    {
      "inputs": [
        {
          "internalType": "uint256",
          "name": "tokenId",
          "type": "uint256"
        }
      ],
      "name": "pickRandomFirstWord",
      "outputs": [
        {
          "internalType": "string",
          "name": "",
          "type": "string"
        }
      ],
      "stateMutability": "view",
      "type": "function"
    },
    {
      "inputs": [
        {
          "internalType": "uint256",
          "name": "tokenId",
          "type": "uint256"
        }
      ],
      "name": "pickRandomSecondWord",
      "outputs": [
        {
          "internalType": "string",
          "name": "",
          "type": "string"
        }
      ],
      "stateMutability": "view",
      "type": "function"
    },
    {
      "inputs": [
        {
          "internalType": "uint256",
          "name": "tokenId",
          "type": "uint256"
        }
      ],
      "name": "pickRandomThirdWord",
      "outputs": [
        {
          "internalType": "string",
          "name": "",
          "type": "string"
        }
      ],
      "stateMutability": "view",
      "type": "function"
    },
    {
      "inputs": [
        {
          "internalType": "address",
          "name": "from",
          "type": "address"
        },
        {
          "internalType": "address",
          "name": "to",
          "type": "address"
        },
        {
          "internalType": "uint256",
          "name": "tokenId",
          "type": "uint256"
        }
      ],
      "name": "safeTransferFrom",
      "outputs": [],
      "stateMutability": "nonpayable",
      "type": "function"
    },
    {
      "inputs": [
        {
          "internalType": "address",
          "name": "from",
          "type": "address"
        },
        {
          "internalType": "address",
          "name": "to",
          "type": "address"
        },
        {
          "internalType": "uint256",
          "name": "tokenId",
          "type": "uint256"
        },
        {
          "internalType": "bytes",
          "name": "_data",
          "type": "bytes"
        }
      ],
      "name": "safeTransferFrom",
      "outputs": [],
      "stateMutability": "nonpayable",
      "type": "function"
    },
    {
      "inputs": [
        {
          "internalType": "address",
          "name": "operator",
          "type": "address"
        },
        {
          "internalType": "bool",
          "name": "approved",
          "type": "bool"
        }
      ],
      "name": "setApprovalForAll",
      "outputs": [],
      "stateMutability": "nonpayable",
      "type": "function"
    },
    {
      "inputs": [
        {
          "internalType": "bytes4",
          "name": "interfaceId",
          "type": "bytes4"
        }
      ],
      "name": "supportsInterface",
      "outputs": [
        {
          "internalType": "bool",
          "name": "",
          "type": "bool"
        }
      ],
      "stateMutability": "view",
      "type": "function"
    },
    {
      "inputs": [],
      "name": "symbol",
      "outputs": [
        {
          "internalType": "string",
          "name": "",
          "type": "string"
        }
      ],
      "stateMutability": "view",
      "type": "function"
    },
    {
      "inputs": [
        {
          "internalType": "uint256",
          "name": "tokenId",
          "type": "uint256"
        }
      ],
      "name": "tokenURI",
      "outputs": [
        {
          "internalType": "string",
          "name": "",
          "type": "string"
        }
      ],
      "stateMutability": "view",
      "type": "function"
    },
    {
      "inputs": [
        {
          "internalType": "address",
          "name": "from",
          "type": "address"
        },
        {
          "internalType": "address",
          "name": "to",
          "type": "address"
        },
        {
          "internalType": "uint256",
          "name": "tokenId",
          "type": "uint256"
        }
      ],
      "name": "transferFrom",
      "outputs": [],
      "stateMutability": "nonpayable",
      "type": "function"
    }
  ],
  "bytecode": "0x60806040526000600855603260095560405180610100016040528060d3815260200162004a7360d39139600a90805190602001906200004092919062000c25565b5060405180608001604052806056815260200162004b4660569139600b90805190602001906200007292919062000c25565b506040518061010001604052806040518060400160405280600381526020017f726564000000000000000000000000000000000000000000000000000000000081525081526020016040518060400160405280600781526020017f233038433241380000000000000000000000000000000000000000000000000081525081526020016040518060400160405280600581526020017f626c61636b00000000000000000000000000000000000000000000000000000081525081526020016040518060400160405280600681526020017f79656c6c6f77000000000000000000000000000000000000000000000000000081525081526020016040518060400160405280600481526020017f626c75650000000000000000000000000000000000000000000000000000000081525081526020016040518060400160405280600581526020017f677265656e00000000000000000000000000000000000000000000000000000081525081526020016040518060400160405280600e81526020017f636f726e666c6f776572626c756500000000000000000000000000000000000081525081526020016040518060400160405280600681526020017f6f72616e67650000000000000000000000000000000000000000000000000000815250815250600c9060086200026792919062000cb6565b506040518061016001604052806040518060400160405280600581526020017f617269657300000000000000000000000000000000000000000000000000000081525081526020016040518060400160405280600381526020017f6c656f000000000000000000000000000000000000000000000000000000000081525081526020016040518060400160405280600b81526020017f736167697474617269757300000000000000000000000000000000000000000081525081526020016040518060400160405280600681526020017f746175727573000000000000000000000000000000000000000000000000000081525081526020016040518060400160405280600581526020017f766972676f00000000000000000000000000000000000000000000000000000081525081526020016040518060400160405280600981526020017f6361707269636f726e000000000000000000000000000000000000000000000081525081526020016040518060400160405280600581526020017f6c6962726100000000000000000000000000000000000000000000000000000081525081526020016040518060400160405280600881526020017f617175617269757300000000000000000000000000000000000000000000000081525081526020016040518060400160405280600681526020017f63616e636572000000000000000000000000000000000000000000000000000081525081526020016040518060400160405280600781526020017f73636f7270696f0000000000000000000000000000000000000000000000000081525081526020016040518060400160405280600681526020017f7069736365730000000000000000000000000000000000000000000000000000815250815250600d90600b6200050d92919062000d1d565b506040518061016001604052806040518060400160405280600581526020017f617269657300000000000000000000000000000000000000000000000000000081525081526020016040518060400160405280600381526020017f6c656f000000000000000000000000000000000000000000000000000000000081525081526020016040518060400160405280600b81526020017f736167697474617269757300000000000000000000000000000000000000000081525081526020016040518060400160405280600681526020017f746175727573000000000000000000000000000000000000000000000000000081525081526020016040518060400160405280600581526020017f766972676f00000000000000000000000000000000000000000000000000000081525081526020016040518060400160405280600981526020017f6361707269636f726e000000000000000000000000000000000000000000000081525081526020016040518060400160405280600581526020017f6c6962726100000000000000000000000000000000000000000000000000000081525081526020016040518060400160405280600881526020017f617175617269757300000000000000000000000000000000000000000000000081525081526020016040518060400160405280600681526020017f63616e636572000000000000000000000000000000000000000000000000000081525081526020016040518060400160405280600781526020017f73636f7270696f0000000000000000000000000000000000000000000000000081525081526020016040518060400160405280600681526020017f7069736365730000000000000000000000000000000000000000000000000000815250815250600e90600b620007b392919062000d1d565b506040518061016001604052806040518060400160405280600581526020017f617269657300000000000000000000000000000000000000000000000000000081525081526020016040518060400160405280600381526020017f6c656f000000000000000000000000000000000000000000000000000000000081525081526020016040518060400160405280600b81526020017f736167697474617269757300000000000000000000000000000000000000000081525081526020016040518060400160405280600681526020017f746175727573000000000000000000000000000000000000000000000000000081525081526020016040518060400160405280600581526020017f766972676f00000000000000000000000000000000000000000000000000000081525081526020016040518060400160405280600981526020017f6361707269636f726e000000000000000000000000000000000000000000000081525081526020016040518060400160405280600581526020017f6c6962726100000000000000000000000000000000000000000000000000000081525081526020016040518060400160405280600881526020017f617175617269757300000000000000000000000000000000000000000000000081525081526020016040518060400160405280600681526020017f63616e636572000000000000000000000000000000000000000000000000000081525081526020016040518060400160405280600781526020017f73636f7270696f0000000000000000000000000000000000000000000000000081525081526020016040518060400160405280600681526020017f7069736365730000000000000000000000000000000000000000000000000000815250815250600f90600b62000a5992919062000d1d565b5034801562000a6757600080fd5b506040518060400160405280600981526020017f5a6f646961634e465400000000000000000000000000000000000000000000008152506040518060400160405280600681526020017f5a4f444941430000000000000000000000000000000000000000000000000000815250816000908051906020019062000aec92919062000c25565b50806001908051906020019062000b0592919062000c25565b50505062000b536040518060400160405280601481526020017f436f6e747261637420696e697469616c697a656400000000000000000000000081525062000b5960201b620012c31760201c565b62000f3e565b62000bf98160405160240162000b70919062000e52565b6040516020818303038152906040527f41304fac000000000000000000000000000000000000000000000000000000007bffffffffffffffffffffffffffffffffffffffffffffffffffffffff19166020820180517bffffffffffffffffffffffffffffffffffffffffffffffffffffffff838183161783525050505062000bfc60201b60201c565b50565b60008151905060006a636f6e736f6c652e6c6f679050602083016000808483855afa5050505050565b82805462000c339062000ec8565b90600052602060002090601f01602090048101928262000c57576000855562000ca3565b82601f1062000c7257805160ff191683800117855562000ca3565b8280016001018555821562000ca3579182015b8281111562000ca257825182559160200191906001019062000c85565b5b50905062000cb2919062000d84565b5090565b82805482825590600052602060002090810192821562000d0a579160200282015b8281111562000d0957825182908051906020019062000cf892919062000c25565b509160200191906001019062000cd7565b5b50905062000d19919062000da3565b5090565b82805482825590600052602060002090810192821562000d71579160200282015b8281111562000d7057825182908051906020019062000d5f92919062000c25565b509160200191906001019062000d3e565b5b50905062000d80919062000da3565b5090565b5b8082111562000d9f57600081600090555060010162000d85565b5090565b5b8082111562000dc7576000818162000dbd919062000dcb565b5060010162000da4565b5090565b50805462000dd99062000ec8565b6000825580601f1062000ded575062000e0e565b601f01602090049060005260206000209081019062000e0d919062000d84565b5b50565b600062000e1e8262000e76565b62000e2a818562000e81565b935062000e3c81856020860162000e92565b62000e478162000f2d565b840191505092915050565b6000602082019050818103600083015262000e6e818462000e11565b905092915050565b600081519050919050565b600082825260208201905092915050565b60005b8381101562000eb257808201518184015260208101905062000e95565b8381111562000ec2576000848401525b50505050565b6000600282049050600182168062000ee157607f821691505b6020821081141562000ef85762000ef762000efe565b5b50919050565b7f4e487b7100000000000000000000000000000000000000000000000000000000600052602260045260246000fd5b6000601f19601f8301169050919050565b613b258062000f4e6000396000f3fe608060405234801561001057600080fd5b50600436106101215760003560e01c806370a08231116100ad578063b4c3b8be11610071578063b4c3b8be1461032c578063b88d4fde1461034a578063c575757a14610366578063c87b56dd14610396578063e985e9c5146103c657610121565b806370a082311461028857806395d89b41146102b8578063a22cb465146102d6578063b036b4bd146102f2578063b187301f146102fc57610121565b806323b872dd116100f457806323b872dd146101c05780632de38d68146101dc57806342842e0e1461020c578063514dc8c6146102285780636352211e1461025857610121565b806301ffc9a71461012657806306fdde0314610156578063081812fc14610174578063095ea7b3146101a4575b600080fd5b610140600480360381019061013b91906126c3565b6103f6565b60405161014d919061337b565b60405180910390f35b61015e6104d8565b60405161016b9190613396565b60405180910390f35b61018e60048036038101906101899190612715565b61056a565b60405161019b91906132eb565b60405180910390f35b6101be60048036038101906101b99190612687565b6105ef565b005b6101da60048036038101906101d59190612581565b610707565b005b6101f660048036038101906101f19190612715565b610767565b6040516102039190613396565b60405180910390f35b61022660048036038101906102219190612581565b610885565b005b610242600480360381019061023d9190612715565b6108a5565b60405161024f9190613396565b60405180910390f35b610272600480360381019061026d9190612715565b6109c3565b60405161027f91906132eb565b60405180910390f35b6102a2600480360381019061029d919061251c565b610a75565b6040516102af9190613616565b60405180910390f35b6102c0610b2d565b6040516102cd9190613396565b60405180910390f35b6102f060048036038101906102eb919061264b565b610bbf565b005b6102fa610bd5565b005b61031660048036038101906103119190612715565b610e2e565b6040516103239190613396565b60405180910390f35b610334610f4c565b6040516103419190613616565b60405180910390f35b610364600480360381019061035f91906125d0565b610f5d565b005b610380600480360381019061037b9190612715565b610fbf565b60405161038d9190613396565b60405180910390f35b6103b060048036038101906103ab9190612715565b6110dd565b6040516103bd9190613396565b60405180910390f35b6103e060048036038101906103db9190612545565b61122f565b6040516103ed919061337b565b60405180910390f35b60007f80ac58cd000000000000000000000000000000000000000000000000000000007bffffffffffffffffffffffffffffffffffffffffffffffffffffffff1916827bffffffffffffffffffffffffffffffffffffffffffffffffffffffff191614806104c157507f5b5e139f000000000000000000000000000000000000000000000000000000007bffffffffffffffffffffffffffffffffffffffffffffffffffffffff1916827bffffffffffffffffffffffffffffffffffffffffffffffffffffffff1916145b806104d157506104d08261135c565b5b9050919050565b6060600080546104e7906138b5565b80601f0160208091040260200160405190810160405280929190818152602001828054610513906138b5565b80156105605780601f1061053557610100808354040283529160200191610560565b820191906000526020600020905b81548152906001019060200180831161054357829003601f168201915b5050505050905090565b6000610575826113c6565b6105b4576040517f08c379a00000000000000000000000000000000000000000000000000000000081526004016105ab90613576565b60405180910390fd5b6004600083815260200190815260200160002060009054906101000a900473ffffffffffffffffffffffffffffffffffffffff169050919050565b60006105fa826109c3565b90508073ffffffffffffffffffffffffffffffffffffffff168373ffffffffffffffffffffffffffffffffffffffff16141561066b576040517f08c379a0000000000000000000000000000000000000000000000000000000008152600401610662906135d6565b60405180910390fd5b8073ffffffffffffffffffffffffffffffffffffffff1661068a611432565b73ffffffffffffffffffffffffffffffffffffffff1614806106b957506106b8816106b3611432565b61122f565b5b6106f8576040517f08c379a00000000000000000000000000000000000000000000000000000000081526004016106ef906134b6565b60405180910390fd5b610702838361143a565b505050565b610718610712611432565b826114f3565b610757576040517f08c379a000000000000000000000000000000000000000000000000000000000815260040161074e906135f6565b60405180910390fd5b6107628383836115d1565b505050565b6060600061079b6107778461182d565b6040516020016107879190613285565b6040516020818303038152906040526119da565b9050600d80549050816107ae9190613930565b9050600d81815481106107ea577f4e487b7100000000000000000000000000000000000000000000000000000000600052603260045260246000fd5b9060005260206000200180546107ff906138b5565b80601f016020809104026020016040519081016040528092919081815260200182805461082b906138b5565b80156108785780601f1061084d57610100808354040283529160200191610878565b820191906000526020600020905b81548152906001019060200180831161085b57829003601f168201915b5050505050915050919050565b6108a083838360405180602001604052806000815250610f5d565b505050565b606060006108d96108b58461182d565b6040516020016108c591906132c9565b6040516020818303038152906040526119da565b9050600c80549050816108ec9190613930565b9050600c8181548110610928577f4e487b7100000000000000000000000000000000000000000000000000000000600052603260045260246000fd5b90600052602060002001805461093d906138b5565b80601f0160208091040260200160405190810160405280929190818152602001828054610969906138b5565b80156109b65780601f1061098b576101008083540402835291602001916109b6565b820191906000526020600020905b81548152906001019060200180831161099957829003601f168201915b5050505050915050919050565b6000806002600084815260200190815260200160002060009054906101000a900473ffffffffffffffffffffffffffffffffffffffff169050600073ffffffffffffffffffffffffffffffffffffffff168173ffffffffffffffffffffffffffffffffffffffff161415610a6c576040517f08c379a0000000000000000000000000000000000000000000000000000000008152600401610a63906134f6565b60405180910390fd5b80915050919050565b60008073ffffffffffffffffffffffffffffffffffffffff168273ffffffffffffffffffffffffffffffffffffffff161415610ae6576040517f08c379a0000000000000000000000000000000000000000000000000000000008152600401610add906134d6565b60405180910390fd5b600360008373ffffffffffffffffffffffffffffffffffffffff1673ffffffffffffffffffffffffffffffffffffffff168152602001908152602001600020549050919050565b606060018054610b3c906138b5565b80601f0160208091040260200160405190810160405280929190818152602001828054610b68906138b5565b8015610bb55780601f10610b8a57610100808354040283529160200191610bb5565b820191906000526020600020905b815481529060010190602001808311610b9857829003601f168201915b5050505050905090565b610bd1610bca611432565b8383611a0d565b5050565b6000610be16007611b7a565b9050600954811115610c28576040517f08c379a0000000000000000000000000000000000000000000000000000000008152600401610c1f906133f6565b60405180910390fd5b6000610c3382610767565b90506000610c4083610e2e565b90506000610c4d84610fbf565b90506000838383604051602001610c6693929190613182565b60405160208183030381529060405290506000610c82866108a5565b90506000600a82600b85604051602001610c9f94939291906131b3565b60405160208183030381529060405290506000610ce484610cbf84611b88565b604051602001610cd0929190613240565b604051602081830303815290604052611b88565b9050600081604051602001610cf991906132a7565b6040516020818303038152906040529050610d486040518060400160405280601581526020017f0a2d2d2d2d2d2d2d2d2d2d2d2d2d2d2d2d2d2d2d2d00000000000000000000008152506112c3565b610d51816112c3565b610d8f6040518060400160405280601581526020017f2d2d2d2d2d2d2d2d2d2d2d2d2d2d2d2d2d2d2d2d0a00000000000000000000008152506112c3565b610d99338a611d46565b610da38982611d64565b610dad6007611dd8565b610dd0604051806060016040528060258152602001613a8b602591398a33611dee565b7f1c05098ed1ff38e6238d2b1b04b2c7977d4c94ce651bda6473f9dba8dbf01da0338a604051610e01929190613352565b60405180910390a1600160086000828254610e1c91906136ea565b92505081905550505050505050505050565b60606000610e62610e3e8461182d565b604051602001610e4e919061321e565b6040516020818303038152906040526119da565b9050600e8054905081610e759190613930565b9050600e8181548110610eb1577f4e487b7100000000000000000000000000000000000000000000000000000000600052603260045260246000fd5b906000526020600020018054610ec6906138b5565b80601f0160208091040260200160405190810160405280929190818152602001828054610ef2906138b5565b8015610f3f5780601f10610f1457610100808354040283529160200191610f3f565b820191906000526020600020905b815481529060010190602001808311610f2257829003601f168201915b5050505050915050919050565b6000610f586007611b7a565b905090565b610f6e610f68611432565b836114f3565b610fad576040517f08c379a0000000000000000000000000000000000000000000000000000000008152600401610fa4906135f6565b60405180910390fd5b610fb984848484611e8d565b50505050565b60606000610ff3610fcf8461182d565b604051602001610fdf91906131fc565b6040516020818303038152906040526119da565b9050600f80549050816110069190613930565b9050600f8181548110611042577f4e487b7100000000000000000000000000000000000000000000000000000000600052603260045260246000fd5b906000526020600020018054611057906138b5565b80601f0160208091040260200160405190810160405280929190818152602001828054611083906138b5565b80156110d05780601f106110a5576101008083540402835291602001916110d0565b820191906000526020600020905b8154815290600101906020018083116110b357829003601f168201915b5050505050915050919050565b60606110e8826113c6565b611127576040517f08c379a000000000000000000000000000000000000000000000000000000000815260040161111e90613556565b60405180910390fd5b6000600660008481526020019081526020016000208054611147906138b5565b80601f0160208091040260200160405190810160405280929190818152602001828054611173906138b5565b80156111c05780601f10611195576101008083540402835291602001916111c0565b820191906000526020600020905b8154815290600101906020018083116111a357829003601f168201915b5050505050905060006111d1611ee9565b90506000815114156111e757819250505061122a565b60008251111561121c57808260405160200161120492919061315e565b6040516020818303038152906040529250505061122a565b61122584611f00565b925050505b919050565b6000600560008473ffffffffffffffffffffffffffffffffffffffff1673ffffffffffffffffffffffffffffffffffffffff16815260200190815260200160002060008373ffffffffffffffffffffffffffffffffffffffff1673ffffffffffffffffffffffffffffffffffffffff16815260200190815260200160002060009054906101000a900460ff16905092915050565b611359816040516024016112d79190613396565b6040516020818303038152906040527f41304fac000000000000000000000000000000000000000000000000000000007bffffffffffffffffffffffffffffffffffffffffffffffffffffffff19166020820180517bffffffffffffffffffffffffffffffffffffffffffffffffffffffff8381831617835250505050611fa7565b50565b60007f01ffc9a7000000000000000000000000000000000000000000000000000000007bffffffffffffffffffffffffffffffffffffffffffffffffffffffff1916827bffffffffffffffffffffffffffffffffffffffffffffffffffffffff1916149050919050565b60008073ffffffffffffffffffffffffffffffffffffffff166002600084815260200190815260200160002060009054906101000a900473ffffffffffffffffffffffffffffffffffffffff1673ffffffffffffffffffffffffffffffffffffffff1614159050919050565b600033905090565b816004600083815260200190815260200160002060006101000a81548173ffffffffffffffffffffffffffffffffffffffff021916908373ffffffffffffffffffffffffffffffffffffffff160217905550808273ffffffffffffffffffffffffffffffffffffffff166114ad836109c3565b73ffffffffffffffffffffffffffffffffffffffff167f8c5be1e5ebec7d5bd14f71427d1e84f3dd0314c0f7b2291e5b200ac8c7c3b92560405160405180910390a45050565b60006114fe826113c6565b61153d576040517f08c379a000000000000000000000000000000000000000000000000000000000815260040161153490613496565b60405180910390fd5b6000611548836109c3565b90508073ffffffffffffffffffffffffffffffffffffffff168473ffffffffffffffffffffffffffffffffffffffff1614806115b757508373ffffffffffffffffffffffffffffffffffffffff1661159f8461056a565b73ffffffffffffffffffffffffffffffffffffffff16145b806115c857506115c7818561122f565b5b91505092915050565b8273ffffffffffffffffffffffffffffffffffffffff166115f1826109c3565b73ffffffffffffffffffffffffffffffffffffffff1614611647576040517f08c379a000000000000000000000000000000000000000000000000000000000815260040161163e90613596565b60405180910390fd5b600073ffffffffffffffffffffffffffffffffffffffff168273ffffffffffffffffffffffffffffffffffffffff1614156116b7576040517f08c379a00000000000000000000000000000000000000000000000000000000081526004016116ae90613456565b60405180910390fd5b6116c2838383611fd0565b6116cd60008261143a565b6001600360008573ffffffffffffffffffffffffffffffffffffffff1673ffffffffffffffffffffffffffffffffffffffff168152602001908152602001600020600082825461171d91906137cb565b925050819055506001600360008473ffffffffffffffffffffffffffffffffffffffff1673ffffffffffffffffffffffffffffffffffffffff168152602001908152602001600020600082825461177491906136ea565b92505081905550816002600083815260200190815260200160002060006101000a81548173ffffffffffffffffffffffffffffffffffffffff021916908373ffffffffffffffffffffffffffffffffffffffff160217905550808273ffffffffffffffffffffffffffffffffffffffff168473ffffffffffffffffffffffffffffffffffffffff167fddf252ad1be2c89b69c2b068fc378daa952ba7f163c4a11628f55a4df523b3ef60405160405180910390a4505050565b60606000821415611875576040518060400160405280600181526020017f300000000000000000000000000000000000000000000000000000000000000081525090506119d5565b600082905060005b600082146118a7578080611890906138e7565b915050600a826118a09190613740565b915061187d565b60008167ffffffffffffffff8111156118e9577f4e487b7100000000000000000000000000000000000000000000000000000000600052604160045260246000fd5b6040519080825280601f01601f19166020018201604052801561191b5781602001600182028036833780820191505090505b5090505b600085146119ce5760018261193491906137cb565b9150600a856119439190613930565b603061194f91906136ea565b60f81b81838151811061198b577f4e487b7100000000000000000000000000000000000000000000000000000000600052603260045260246000fd5b60200101907effffffffffffffffffffffffffffffffffffffffffffffffffffffffffffff1916908160001a905350600a856119c79190613740565b945061191f565b8093505050505b919050565b6000816040516020016119ed9190613147565b6040516020818303038152906040528051906020012060001c9050919050565b8173ffffffffffffffffffffffffffffffffffffffff168373ffffffffffffffffffffffffffffffffffffffff161415611a7c576040517f08c379a0000000000000000000000000000000000000000000000000000000008152600401611a7390613476565b60405180910390fd5b80600560008573ffffffffffffffffffffffffffffffffffffffff1673ffffffffffffffffffffffffffffffffffffffff16815260200190815260200160002060008473ffffffffffffffffffffffffffffffffffffffff1673ffffffffffffffffffffffffffffffffffffffff16815260200190815260200160002060006101000a81548160ff0219169083151502179055508173ffffffffffffffffffffffffffffffffffffffff168373ffffffffffffffffffffffffffffffffffffffff167f17307eab39ab6107e8899845ad3d59bd9653f200f220920489ca2b5937696c3183604051611b6d919061337b565b60405180910390a3505050565b600081600001549050919050565b60606000825190506000811415611bb15760405180602001604052806000815250915050611d41565b60006003600283611bc291906136ea565b611bcc9190613740565b6004611bd89190613771565b90506000602082611be991906136ea565b67ffffffffffffffff811115611c28577f4e487b7100000000000000000000000000000000000000000000000000000000600052604160045260246000fd5b6040519080825280601f01601f191660200182016040528015611c5a5781602001600182028036833780820191505090505b5090506000604051806060016040528060408152602001613ab0604091399050600181016020830160005b86811015611cfe5760038101905062ffffff818a015116603f8160121c168401518060081b905060ff603f83600c1c1686015116810190508060081b905060ff603f8360061c1686015116810190508060081b905060ff603f831686015116810190508060e01b90508084526004840193505050611c85565b506003860660018114611d185760028114611d2857611d33565b613d3d60f01b6002830352611d33565b603d60f81b60018303525b508484525050819450505050505b919050565b611d60828260405180602001604052806000815250611fd5565b5050565b611d6d826113c6565b611dac576040517f08c379a0000000000000000000000000000000000000000000000000000000008152600401611da390613516565b60405180910390fd5b80600660008481526020019081526020016000209080519060200190611dd39291906123a8565b505050565b6001816000016000828254019250508190555050565b611e88838383604051602401611e06939291906133b8565b6040516020818303038152906040527fe3849f79000000000000000000000000000000000000000000000000000000007bffffffffffffffffffffffffffffffffffffffffffffffffffffffff19166020820180517bffffffffffffffffffffffffffffffffffffffffffffffffffffffff8381831617835250505050611fa7565b505050565b611e988484846115d1565b611ea484848484612030565b611ee3576040517f08c379a0000000000000000000000000000000000000000000000000000000008152600401611eda90613416565b60405180910390fd5b50505050565b606060405180602001604052806000815250905090565b6060611f0b826113c6565b611f4a576040517f08c379a0000000000000000000000000000000000000000000000000000000008152600401611f41906135b6565b60405180910390fd5b6000611f54611ee9565b90506000815111611f745760405180602001604052806000815250611f9f565b80611f7e8461182d565b604051602001611f8f92919061315e565b6040516020818303038152906040525b915050919050565b60008151905060006a636f6e736f6c652e6c6f679050602083016000808483855afa5050505050565b505050565b611fdf83836121c7565b611fec6000848484612030565b61202b576040517f08c379a000000000000000000000000000000000000000000000000000000000815260040161202290613416565b60405180910390fd5b505050565b60006120518473ffffffffffffffffffffffffffffffffffffffff16612395565b156121ba578373ffffffffffffffffffffffffffffffffffffffff1663150b7a0261207a611432565b8786866040518563ffffffff1660e01b815260040161209c9493929190613306565b602060405180830381600087803b1580156120b657600080fd5b505af19250505080156120e757506040513d601f19601f820116820180604052508101906120e491906126ec565b60015b61216a573d8060008114612117576040519150601f19603f3d011682016040523d82523d6000602084013e61211c565b606091505b50600081511415612162576040517f08c379a000000000000000000000000000000000000000000000000000000000815260040161215990613416565b60405180910390fd5b805181602001fd5b63150b7a0260e01b7bffffffffffffffffffffffffffffffffffffffffffffffffffffffff1916817bffffffffffffffffffffffffffffffffffffffffffffffffffffffff1916149150506121bf565b600190505b949350505050565b600073ffffffffffffffffffffffffffffffffffffffff168273ffffffffffffffffffffffffffffffffffffffff161415612237576040517f08c379a000000000000000000000000000000000000000000000000000000000815260040161222e90613536565b60405180910390fd5b612240816113c6565b15612280576040517f08c379a000000000000000000000000000000000000000000000000000000000815260040161227790613436565b60405180910390fd5b61228c60008383611fd0565b6001600360008473ffffffffffffffffffffffffffffffffffffffff1673ffffffffffffffffffffffffffffffffffffffff16815260200190815260200160002060008282546122dc91906136ea565b92505081905550816002600083815260200190815260200160002060006101000a81548173ffffffffffffffffffffffffffffffffffffffff021916908373ffffffffffffffffffffffffffffffffffffffff160217905550808273ffffffffffffffffffffffffffffffffffffffff16600073ffffffffffffffffffffffffffffffffffffffff167fddf252ad1be2c89b69c2b068fc378daa952ba7f163c4a11628f55a4df523b3ef60405160405180910390a45050565b600080823b905060008111915050919050565b8280546123b4906138b5565b90600052602060002090601f0160209004810192826123d6576000855561241d565b82601f106123ef57805160ff191683800117855561241d565b8280016001018555821561241d579182015b8281111561241c578251825591602001919060010190612401565b5b50905061242a919061242e565b5090565b5b8082111561244757600081600090555060010161242f565b5090565b600061245e61245984613662565b613631565b90508281526020810184848401111561247657600080fd5b612481848285613873565b509392505050565b60008135905061249881613a2e565b92915050565b6000813590506124ad81613a45565b92915050565b6000813590506124c281613a5c565b92915050565b6000815190506124d781613a5c565b92915050565b600082601f8301126124ee57600080fd5b81356124fe84826020860161244b565b91505092915050565b60008135905061251681613a73565b92915050565b60006020828403121561252e57600080fd5b600061253c84828501612489565b91505092915050565b6000806040838503121561255857600080fd5b600061256685828601612489565b925050602061257785828601612489565b9150509250929050565b60008060006060848603121561259657600080fd5b60006125a486828701612489565b93505060206125b586828701612489565b92505060406125c686828701612507565b9150509250925092565b600080600080608085870312156125e657600080fd5b60006125f487828801612489565b945050602061260587828801612489565b935050604061261687828801612507565b925050606085013567ffffffffffffffff81111561263357600080fd5b61263f878288016124dd565b91505092959194509250565b6000806040838503121561265e57600080fd5b600061266c85828601612489565b925050602061267d8582860161249e565b9150509250929050565b6000806040838503121561269a57600080fd5b60006126a885828601612489565b92505060206126b985828601612507565b9150509250929050565b6000602082840312156126d557600080fd5b60006126e3848285016124b3565b91505092915050565b6000602082840312156126fe57600080fd5b600061270c848285016124c8565b91505092915050565b60006020828403121561272757600080fd5b600061273584828501612507565b91505092915050565b612747816137ff565b82525050565b61275681613811565b82525050565b6000612767826136a7565b61277181856136bd565b9350612781818560208601613882565b61278a81613a1d565b840191505092915050565b60006127a0826136b2565b6127aa81856136ce565b93506127ba818560208601613882565b6127c381613a1d565b840191505092915050565b60006127d9826136b2565b6127e381856136df565b93506127f3818560208601613882565b80840191505092915050565b6000815461280c816138b5565b61281681866136df565b94506001821660008114612831576001811461284257612875565b60ff19831686528186019350612875565b61284b85613692565b60005b8381101561286d5781548189015260018201915060208101905061284e565b838801955050505b50505092915050565b600061288b6014836136ce565b91507f4d6178696d756d206d696e7420726561636865640000000000000000000000006000830152602082019050919050565b60006128cb6032836136ce565b91507f4552433732313a207472616e7366657220746f206e6f6e20455243373231526560008301527f63656976657220696d706c656d656e74657200000000000000000000000000006020830152604082019050919050565b6000612931601c836136ce565b91507f4552433732313a20746f6b656e20616c7265616479206d696e746564000000006000830152602082019050919050565b6000612971600a836136df565b91507f54484952445f574f5244000000000000000000000000000000000000000000006000830152600a82019050919050565b60006129b16024836136ce565b91507f4552433732313a207472616e7366657220746f20746865207a65726f2061646460008301527f72657373000000000000000000000000000000000000000000000000000000006020830152604082019050919050565b6000612a176019836136ce565b91507f4552433732313a20617070726f766520746f2063616c6c6572000000000000006000830152602082019050919050565b6000612a57600b836136df565b91507f5345434f4e445f574f52440000000000000000000000000000000000000000006000830152600b82019050919050565b6000612a97602c836136ce565b91507f4552433732313a206f70657261746f7220717565727920666f72206e6f6e657860008301527f697374656e7420746f6b656e00000000000000000000000000000000000000006020830152604082019050919050565b6000612afd600d836136df565b91507f3c2f746578743e3c2f7376673e000000000000000000000000000000000000006000830152600d82019050919050565b6000612b3d6038836136ce565b91507f4552433732313a20617070726f76652063616c6c6572206973206e6f74206f7760008301527f6e6572206e6f7220617070726f76656420666f7220616c6c00000000000000006020830152604082019050919050565b6000612ba3604b836136df565b91507f222c20226465736372697074696f6e223a202253756e2c204d6f6f6e2c20526960008301527f73696e67222c2022696d616765223a2022646174613a696d6167652f7376672b60208301527f786d6c3b6261736536342c0000000000000000000000000000000000000000006040830152604b82019050919050565b6000612c2f602a836136ce565b91507f4552433732313a2062616c616e636520717565727920666f7220746865207a6560008301527f726f2061646472657373000000000000000000000000000000000000000000006020830152604082019050919050565b6000612c956029836136ce565b91507f4552433732313a206f776e657220717565727920666f72206e6f6e657869737460008301527f656e7420746f6b656e00000000000000000000000000000000000000000000006020830152604082019050919050565b6000612cfb602e836136ce565b91507f45524337323155524953746f726167653a2055524920736574206f66206e6f6e60008301527f6578697374656e7420746f6b656e0000000000000000000000000000000000006020830152604082019050919050565b6000612d616002836136df565b91507f227d0000000000000000000000000000000000000000000000000000000000006000830152600282019050919050565b6000612da16020836136ce565b91507f4552433732313a206d696e7420746f20746865207a65726f20616464726573736000830152602082019050919050565b6000612de16031836136ce565b91507f45524337323155524953746f726167653a2055524920717565727920666f722060008301527f6e6f6e6578697374656e7420746f6b656e0000000000000000000000000000006020830152604082019050919050565b6000612e47602c836136ce565b91507f4552433732313a20617070726f76656420717565727920666f72206e6f6e657860008301527f697374656e7420746f6b656e00000000000000000000000000000000000000006020830152604082019050919050565b6000612ead6029836136ce565b91507f4552433732313a207472616e73666572206f6620746f6b656e2074686174206960008301527f73206e6f74206f776e00000000000000000000000000000000000000000000006020830152604082019050919050565b6000612f13602f836136ce565b91507f4552433732314d657461646174613a2055524920717565727920666f72206e6f60008301527f6e6578697374656e7420746f6b656e00000000000000000000000000000000006020830152604082019050919050565b6000612f79600a836136df565b91507f7b226e616d65223a2022000000000000000000000000000000000000000000006000830152600a82019050919050565b6000612fb96021836136ce565b91507f4552433732313a20617070726f76616c20746f2063757272656e74206f776e6560008301527f72000000000000000000000000000000000000000000000000000000000000006020830152604082019050919050565b600061301f600a836136df565b91507f46495253545f574f5244000000000000000000000000000000000000000000006000830152600a82019050919050565b600061305f601d836136df565b91507f646174613a6170706c69636174696f6e2f6a736f6e3b6261736536342c0000006000830152601d82019050919050565b600061309f6031836136ce565b91507f4552433732313a207472616e736665722063616c6c6572206973206e6f74206f60008301527f776e6572206e6f7220617070726f7665640000000000000000000000000000006020830152604082019050919050565b60006131056005836136df565b91507f434f4c4f520000000000000000000000000000000000000000000000000000006000830152600582019050919050565b61314181613869565b82525050565b600061315382846127ce565b915081905092915050565b600061316a82856127ce565b915061317682846127ce565b91508190509392505050565b600061318e82866127ce565b915061319a82856127ce565b91506131a682846127ce565b9150819050949350505050565b60006131bf82876127ff565b91506131cb82866127ce565b91506131d782856127ff565b91506131e382846127ce565b91506131ee82612af0565b915081905095945050505050565b600061320782612964565b915061321382846127ce565b915081905092915050565b600061322982612a4a565b915061323582846127ce565b915081905092915050565b600061324b82612f6c565b915061325782856127ce565b915061326282612b96565b915061326e82846127ce565b915061327982612d54565b91508190509392505050565b600061329082613012565b915061329c82846127ce565b915081905092915050565b60006132b282613052565b91506132be82846127ce565b915081905092915050565b60006132d4826130f8565b91506132e082846127ce565b915081905092915050565b6000602082019050613300600083018461273e565b92915050565b600060808201905061331b600083018761273e565b613328602083018661273e565b6133356040830185613138565b8181036060830152613347818461275c565b905095945050505050565b6000604082019050613367600083018561273e565b6133746020830184613138565b9392505050565b6000602082019050613390600083018461274d565b92915050565b600060208201905081810360008301526133b08184612795565b905092915050565b600060608201905081810360008301526133d28186612795565b90506133e16020830185613138565b6133ee604083018461273e565b949350505050565b6000602082019050818103600083015261340f8161287e565b9050919050565b6000602082019050818103600083015261342f816128be565b9050919050565b6000602082019050818103600083015261344f81612924565b9050919050565b6000602082019050818103600083015261346f816129a4565b9050919050565b6000602082019050818103600083015261348f81612a0a565b9050919050565b600060208201905081810360008301526134af81612a8a565b9050919050565b600060208201905081810360008301526134cf81612b30565b9050919050565b600060208201905081810360008301526134ef81612c22565b9050919050565b6000602082019050818103600083015261350f81612c88565b9050919050565b6000602082019050818103600083015261352f81612cee565b9050919050565b6000602082019050818103600083015261354f81612d94565b9050919050565b6000602082019050818103600083015261356f81612dd4565b9050919050565b6000602082019050818103600083015261358f81612e3a565b9050919050565b600060208201905081810360008301526135af81612ea0565b9050919050565b600060208201905081810360008301526135cf81612f06565b9050919050565b600060208201905081810360008301526135ef81612fac565b9050919050565b6000602082019050818103600083015261360f81613092565b9050919050565b600060208201905061362b6000830184613138565b92915050565b6000604051905081810181811067ffffffffffffffff82111715613658576136576139ee565b5b8060405250919050565b600067ffffffffffffffff82111561367d5761367c6139ee565b5b601f19601f8301169050602081019050919050565b60008190508160005260206000209050919050565b600081519050919050565b600081519050919050565b600082825260208201905092915050565b600082825260208201905092915050565b600081905092915050565b60006136f582613869565b915061370083613869565b9250827fffffffffffffffffffffffffffffffffffffffffffffffffffffffffffffffff0382111561373557613734613961565b5b828201905092915050565b600061374b82613869565b915061375683613869565b92508261376657613765613990565b5b828204905092915050565b600061377c82613869565b915061378783613869565b9250817fffffffffffffffffffffffffffffffffffffffffffffffffffffffffffffffff04831182151516156137c0576137bf613961565b5b828202905092915050565b60006137d682613869565b91506137e183613869565b9250828210156137f4576137f3613961565b5b828203905092915050565b600061380a82613849565b9050919050565b60008115159050919050565b60007fffffffff0000000000000000000000000000000000000000000000000000000082169050919050565b600073ffffffffffffffffffffffffffffffffffffffff82169050919050565b6000819050919050565b82818337600083830152505050565b60005b838110156138a0578082015181840152602081019050613885565b838111156138af576000848401525b50505050565b600060028204905060018216806138cd57607f821691505b602082108114156138e1576138e06139bf565b5b50919050565b60006138f282613869565b91507fffffffffffffffffffffffffffffffffffffffffffffffffffffffffffffffff82141561392557613924613961565b5b600182019050919050565b600061393b82613869565b915061394683613869565b92508261395657613955613990565b5b828206905092915050565b7f4e487b7100000000000000000000000000000000000000000000000000000000600052601160045260246000fd5b7f4e487b7100000000000000000000000000000000000000000000000000000000600052601260045260246000fd5b7f4e487b7100000000000000000000000000000000000000000000000000000000600052602260045260246000fd5b7f4e487b7100000000000000000000000000000000000000000000000000000000600052604160045260246000fd5b6000601f19601f8301169050919050565b613a37816137ff565b8114613a4257600080fd5b50565b613a4e81613811565b8114613a5957600080fd5b50565b613a658161381d565b8114613a7057600080fd5b50565b613a7c81613869565b8114613a8757600080fd5b5056fe416e204e465420772f20494420257320686173206265656e206d696e74656420746f2025734142434445464748494a4b4c4d4e4f505152535455565758595a6162636465666768696a6b6c6d6e6f707172737475767778797a303132333435363738392b2fa2646970667358221220fe1a5f2b47a4f8b7e862503aaa3ad11e929cdba95505b95a45429d603d8a158464736f6c634300080000333c73766720786d6c6e733d27687474703a2f2f7777772e77332e6f72672f323030302f73766727207072657365727665417370656374526174696f3d27784d696e594d696e206d656574272076696577426f783d273020302033353020333530273e3c7374796c653e2e62617365207b2066696c6c3a2077686974653b20666f6e742d66616d696c793a2073657269663b20666f6e742d73697a653a20323470783b207d3c2f7374796c653e3c726563742077696474683d273130302527206865696768743d2731303025272066696c6c3d27272f3e3c7465787420783d273530252720793d273530252720636c6173733d27626173652720646f6d696e616e742d626173656c696e653d276d6964646c652720746578742d616e63686f723d276d6964646c65273e",
  "linkReferences": {},
  "deployedLinkReferences": {}
}